:1000000012C02CC02BC02AC029C028C027C026C0BF
:1000100025C024C023C0CDC00EC120C01FC01EC03B
:100020001DC01CC01BC011241FBECFE5D4E0DEBF25
:10003000CDBF10E0A0E6B0E0E4E4F3E002C005903C
:100040000D92A036B107D9F710E0A0E6B0E001C0EC
:100050001D92A939B107E1F702D072C1D1CF80E07A
:1000600061E070E040E050E023E027D184E066D01A
:1000700080E061E070E040E050E023E01ED180E0ED
:100080005AD181E058D1F4CF882311F4C29A01C02B
:10009000C298BA9A0895FF920F931F93182FF62EC5
:1000A000042F81E0F1DF85E046D1812F44D1802FFC
:1000B00042D18F2D40D180E0E7DF1F910F91FF905B
:1000C00008950F931F93182F062F81E0DDDF82E044
:1000D00032D1812F30D1802F2ED180E0D5DF1F91FA
:1000E0000F9108951F93182F81E0CEDF83E023D175
:1000F000812F21D180E01FD1182F80E0C5DF812F13
:100100001F910895FF920F931F93182F062FF42E1F
:100110008EE0E8DF807E803811F080E00BC08AE25C
:10012000612FCFDF89E2602FCCDF88E26F2D47E0BF
:10013000B2DF81E01F910F91FF900895823079F036
:10014000833018F4813079F40CC0833019F0843096
:1001500051F402C081E001C080E06AEB06C083E098
:10016000FCCF87E001C08FE06FEB47E0CBCF882367
:1001700011F080E0089580917500909176002091B3
:1001800097003091980001968217930779F080913B
:10019000970090919800892B11F020E008C0809181
:1001A00075009091760020E04F9709F421E0822FAE
:1001B00008951F920F920FB60F9211242F933F9321
:1001C0004F935F936F937F938F939F93AF93BF935F
:1001D000EF93FF93E0917500F09176008CB1E958B0
:1001E000FF4F808380E0C3DF8823A1F480917500F6
:1001F000909176004F9750F4809175009091760021
:100200000196909376008093750004C0109276005A
:1002100010927500FF91EF91BF91AF919F918F91D7
:100220007F916F915F914F913F912F910F900FBEF2
:100230000F901F9018951F920F920FB60F921124D6
:100240002F933F938F939F93EF93FF9320916000A1
:100250003091610080916200909163002817390706
:10026000E9F0E0916000F0916100EC59FF4F80816E
:100270008CB980916000909161000F9750F480914B
:1002800060009091610001969093610080936000FE
:1002900009C0109261001092600004C081E0809358
:1002A00074005598FF91EF919F918F913F912F91FD
:1002B0000F900FBE0F901F901895FB01203F29F45F
:1002C000BB98BC9ABA98BD9805C0BB9ABC98BD9A19
:1002D000BA9AC29A452B11F450E401C050EC203F69
:1002E00011F440E001C040E1682F70E081FD02C0E0
:1002F00030E001C038E061707070660F771F660FE4
:10030000771F75E0EE0FFF1F7A95E1F7862F8E2B92
:10031000922F9270892B922F9170892B852B842B91
:10032000832B8DB9822F90E096958795969587952A
:1003300081708EB908958FB9779BFECF8FB10895E4
:04034000F894FFCF5F
:00000001FF
