:1000000012C02CC02BC02AC029C028C027C026C0BF
:1000100025C024C023C04DC021C020C01FC01EC0A9
:100020001DC01CC01BC011241FBECFE5D4E0DEBF25
:10003000CDBF10E0A0E6B0E0E2E1F4E002C0059040
:100040000D92AE37B107D9F710E0AEE7B0E001C0CE
:100050001D92A73BB107E1F702D0D9C1D1CF1F93C1
:100060007894C6D060E070E0C5D0C2D060E670E0A1
:1000700075D1BED0182FBCD0682F605D812F41D1C3
:10008000B7D060E770E06AD180E061E070E040E006
:1000900050E023E079D184E092D080E061E070E02C
:1000A00040E050E023E070D180E0ACD181E0AAD103
:1000B000F4CF1F920F920FB60F9211242F933F93FC
:1000C0004F935F936F937F938F939F93AF93BF9360
:1000D000EF93FF938DD0ADD0882331F089D0BCD081
:1000E000843411F4A09AA89AFF91EF91BF91AF9137
:1000F0009F918F917F916F915F914F913F912F9140
:100100000F900FBE0F901F901895882311F4C29A7C
:1001100001C0C298BA9A0895FF920F931F93182FA7
:10012000F62E042F81E0F1DF85E06CD1812F6AD1BA
:10013000802F68D18F2D66D180E0E7DF1F910F916E
:10014000FF9008950F931F93182F062F81E0DDDF96
:1001500082E058D1812F56D1802F54D180E0D5DF55
:100160001F910F9108951F93182F81E0CEDF83E038
:1001700049D1812F47D180E045D1182F80E0C5DFDC
:10018000812F1F910895FF920F931F93182F062F11
:10019000F42E8EE0E8DF807E803811F080E00BC026
:1001A0008AE2612FCFDF89E2602FCCDF88E26F2DFA
:1001B00047E0B2DF81E01F910F91FF9008958230F8
:1001C00079F0833018F4813079F40CC0833019F061
:1001D000843051F402C081E001C080E06AEB06C0C7
:1001E00083E0FCCF87E001C08FE06FEB47E0CBCF2F
:1001F00081E008958823E1F4109294001092930016
:10020000109296001092950010927F0010927E003E
:10021000109281001092800081E08093920086E02D
:1002200080BD70BD69B980E88AB98AB188618AB930
:100230000895882311F040E00DC020919300309183
:100240009400809195009091960040E0281739071E
:1002500009F041E0842F0895882371F520919300DF
:10026000309194008091950090919600281739075D
:1002700019F1E0919300F0919400E956FF4F20812D
:10028000E0919300F0919400E956FF4F1082809125
:100290009300909194004F9750F480919300909127
:1002A00094000196909394008093930006C010925E
:1002B00094001092930001C020E0822F08958823BB
:1002C00011F080E00895809180009091810020914C
:1002D0007E0030917F0001968217930779F080911C
:1002E0007E0090917F00892B11F020E008C0809162
:1002F00080009091810020E00F9709F421E0822F87
:1003000008951F93162F882339F580E0D8DF8823BE
:10031000E1F7E0918000F0918100EE57FF4F1083EC
:1003200080918000909181000F9750F4809180001F
:10033000909181000196909381008093800004C089
:10034000109281001092800080919200882321F009
:1003500010929200559A5D9A1F910895CF93DF9362
:10036000EB01882371F46115710541F003C02196FA
:1003700080E0C7DF68816623D1F703C0C8E7D0E01B
:10038000F9CFDF91CF910895FB01203F29F4BB986D
:10039000BC9ABA98BD9805C0BB9ABC98BD9ABA9A47
:1003A000C29A452B11F450E401C050EC203F11F4E7
:1003B00040E001C040E1682F70E081FD02C030E004
:1003C00001C038E061707070660F771F660F771F8D
:1003D00075E0EE0FFF1F7A95E1F7862F8E2B922F97
:1003E0009270892B922F9170892B852B842B832BD4
:1003F0008DB9822F90E09695879596958795817017
:100400008EB908958FB9779BFECF8FB10895F89478
:02041000FFCF1C
:1004120048656C6C6F2066726F6D205541525400B6
:0E0422002E2E2E203A290A004E554C4C00007A
:00000001FF
