:1000000012C019C018C017C016C015C014C013C044
:1000100012C011C010C00FC00EC00DC00CC00BC06C
:100020000AC009C008C011241FBECFE5D4E0DEBF5E
:10003000CDBF02D050C0E4CF80E061E070E040E08E
:1000400050E023E005D080EF41D080E03FD0F4CFF6
:10005000FB01203F29F4BB98BC9ABA98BD9805C013
:10006000BB9ABC98BD9ABA9AC29A452B11F450E437
:1000700001C050EC203F11F440E001C040E1682F86
:1000800070E081FD02C030E001C038E06170707046
:10009000660F771F660F771F75E0EE0FFF1F7A95CB
:1000A000E1F7862F8E2B922F9270892B922F9170D1
:1000B000892B852B842B832B8DB9822F90E09695ED
:1000C00087959695879581708EB908958FB9779B9E
:0A00D000FECF8FB10895F894FFCF22
:00000001FF
