:1000000012C02CC02BC02AC029C028C027C026C0BF
:1000100025C024C023C001C142C120C01FC01EC0D2
:100020001DC01CC01BC011241FBECFE5D4E0DEBF25
:10003000CDBF10E0A0E6B0E0E6E2F3E002C005903C
:100040000D92AE37B107D9F710E0AEE7B0E001C0CE
:100050001D92A73BB107E1F702D063C1D1CF1F9337
:10006000CF93DF937894899A88981BB888E18AB9EE
:1000700086E880BD2AD06DE470E029D081E084BBA1
:10008000CCE2D1E0A89A88E893E1FE013197F1F73C
:100090000197D9F7A89888E893E1FE013197F1F725
:1000A0000197D9F712D064E675D00FD060E670E002
:1000B0009ED00BD0182F09D0682F605D812F6AD099
:1000C00004D060E770E093D0DDCF81E0089588230D
:1000D000E1F41092B6001092B500109294001092C4
:1000E000930010927F0010927E0010928100109277
:1000F000800081E08093920086E080BD70BD69B988
:1001000080E88AB98AB188618AB90895882311F094
:1001100080E0089580919300909194002091B50023
:100120003091B60001968217930779F08091B5005F
:100130009091B600892B11F020E008C080919300C7
:100140009091940020E04F9709F421E0822F0895C8
:10015000882311F080E008958091800090918100C3
:1001600020917E0030917F0001968217930779F0ED
:1001700080917E0090917F00892B11F020E008C0D3
:10018000809180009091810020E00F9709F421E098
:10019000822F08951F93162F882339F580E0D8DF2A
:1001A0008823E1F7E0918000F0918100EE57FF4F46
:1001B000108380918000909181000F9750F480917E
:1001C000800090918100019690938100809380003F
:1001D00004C01092810010928000809192008823C8
:1001E00021F010929200559A5D9A1F910895CF9335
:1001F000DF93EB01882371F46115710541F003C0B1
:10020000219680E0C7DF68816623D1F703C0C8E785
:10021000D0E0F9CFDF91CF9108951F920F920FB6E2
:100220000F9211242F933F934F935F936F937F937C
:100230008F939F93AF93BF93EF93FF93E0919300BE
:10024000F09194008CB1EB56FF4F808380E05EDF2D
:100250008823A1F480919300909194004F9750F4DB
:1002600080919300909194000196909394008093D4
:10027000930004C01092940010929300FF91EF91AC
:10028000BF91AF919F918F917F916F915F914F91AE
:100290003F912F910F900FBE0F901F9018951F92B6
:1002A0000F920FB60F9211242F933F938F939F932A
:1002B000EF93FF9320917E0030917F00809180002A
:1002C0009091810028173907E9F0E0917E00F091C4
:1002D0007F00EE57FF4F80818CB980917E00909116
:1002E0007F000F9750F480917E0090917F000196DF
:1002F00090937F0080937E0009C010927F0010923F
:100300007E0004C081E0809392005598FF91EF91A8
:100310009F918F913F912F910F900FBE0F901F9043
:060320001895F894FFCFD0
:1003260048656C6C6F2066726F6D205541525400A3
:0E0336002E2E2E203A290A004E554C4C000067
:00000001FF
