:1000000012C019C018C017C016C015C014C013C044
:1000100012C011C010C00FC00EC00DC00CC00BC06C
:100020000AC009C008C011241FBECFE5D4E0DEBF5E
:10003000CDBF02D0A2C0E4CFDF93CF93CDB7DEB760
:10004000CF5FD0400FB6F894DEBF0FBECDBF80E0CB
:1000500061E070E040E050E023E04CD019829E0166
:100060002F5F3F4FF901AE0140505F4F8E2F821B33
:100070008193E417F507D1F780E1BE016F5F7F4FF1
:100080004FEF13D080E061E070E040E050E023E00B
:1000900031D080E06DD081E06BD0F4CF882311F4B3
:1000A000C29A01C0C298BA9A0895EF92FF920F9334
:1000B0001F93CF93DF93182F062FF72EE42E81E0A6
:1000C000EDDF82E055D0812F8A5C52D0202F3F2D6A
:1000D000C901EC0110E003C089914AD01F5F1E15D1
:1000E000D8F380E0DBDFDF91CF911F910F91FF907C
:1000F000EF900895FB01203F29F4BB98BC9ABA9871
:10010000BD9805C0BB9ABC98BD9ABA9AC29A452BB5
:1001100011F450E401C050EC203F11F440E001C064
:1001200040E1682F70E081FD02C030E001C038E09E
:1001300061707070660F771F660F771F75E0EE0FA6
:10014000FF1F7A95E1F7862F8E2B922F9270892BC5
:10015000922F9170892B852B842B832B8DB9822F25
:1001600090E0969587959695879581708EB90895BC
:0E0170008FB9779BFECF8FB10895F894FFCF23
:00000001FF
