:1000000012C02CC02BC02AC029C028C027C026C0BF
:1000100025C024C023C068C1A9C120C01FC01EC004
:100020001DC01CC01BC011241FBECFE5D4E0DEBF25
:10003000CDBF10E0A0E6B0E0EAE7F4E002C0059032
:100040000D92AE37B107D9F710E0AEE7B0E001C0CE
:100050001D92A73BB107E1F702D00DC2D1CF1F938C
:100060009BD060E070E09AD0789496D060E670E023
:1000700025D192D0182F90D0682F605D812FF1D0BC
:100080008BD060E770E01AD180E061E070E040E082
:1000900050E023E0ADD184E066D080E061E070E024
:1000A00040E050E023E0A4D180E0E0D181E0DED167
:1000B000F4CF882311F4C29A01C0C298BA9A089565
:1000C000FF920F931F93182FF62E042F81E0F1DF7C
:1000D00085E0CCD1812FCAD1802FC8D18F2DC6D138
:1000E00080E0E7DF1F910F91FF9008950F931F931A
:1000F000182F062F81E0DDDF82E0B8D1812FB6D145
:10010000802FB4D180E0D5DF1F910F9108951F9308
:10011000182F81E0CEDF83E0A9D1812FA7D180E025
:10012000A5D1182F80E0C5DF812F1F910895FF9280
:100130000F931F93182F062FF42E8EE0E8DF807E9A
:10014000803811F080E00BC08AE2612FCFDF89E2B6
:10015000602FCCDF88E26F2D47E0B2DF81E01F9196
:100160000F91FF900895823079F0833018F4813038
:1001700079F40CC0833019F0843051F402C081E06E
:1001800001C080E06AEB06C083E0FCCF87E001C0DD
:100190008FE06FEB47E0CBCF81E008958823E1F457
:1001A0001092B6001092B500109294001092930035
:1001B00010927F0010927E001092810010928000B9
:1001C00081E08093920086E080BD70BD69B980E8CF
:1001D0008AB98AB188618AB90895882311F080E0CC
:1001E000089580919300909194002091B5003091F2
:1001F000B60001968217930779F08091B50090912F
:10020000B600892B11F020E008C0809193009091F6
:10021000940020E04F9709F421E0822F089588236D
:1002200011F080E0089580918000909181002091EC
:100230007E0030917F0001968217930779F08091BC
:100240007E0090917F00892B11F020E008C0809102
:1002500080009091810020E00F9709F421E0822F27
:1002600008951F93162F882339F580E0D8DF88235F
:10027000E1F7E0918000F0918100EE57FF4F10838D
:1002800080918000909181000F9750F480918000C0
:10029000909181000196909381008093800004C02A
:1002A000109281001092800080919200882321F0AA
:1002B00010929200559A5D9A1F910895CF93DF9303
:1002C000EB01882371F46115710541F003C021969B
:1002D00080E0C7DF68816623D1F703C0C8E7D0E0BC
:1002E000F9CFDF91CF9108951F920F920FB60F9221
:1002F00011242F933F934F935F936F937F938F932B
:100300009F93AF93BF93EF93FF93E0919300F0918E
:1003100094008CB1EB56FF4F808380E05EDF882332
:10032000A1F480919300909194004F9750F48091A4
:100330009300909194000196909394008093930081
:1003400004C01092940010929300FF91EF91BF911E
:10035000AF919F918F917F916F915F914F913F915D
:100360002F910F900FBE0F901F9018951F920F9214
:100370000FB60F9211242F933F938F939F93EF9378
:10038000FF9320917E0030917F00809180009091BA
:10039000810028173907E9F0E0917E00F0917F0095
:1003A000EE57FF4F80818CB980917E0090917F0045
:1003B0000F9750F480917E0090917F00019690936A
:1003C0007F0080937E0009C010927F0010927E0013
:1003D00004C081E0809392005598FF91EF919F9126
:1003E0008F913F912F910F900FBE0F901F901895F6
:1003F000FB01203F29F4BB98BC9ABA98BD9805C070
:10040000BB9ABC98BD9ABA9AC29A452B11F450E493
:1004100001C050EC203F11F440E001C040E1682FE2
:1004200070E081FD02C030E001C038E061707070A2
:10043000660F771F660F771F75E0EE0FFF1F7A9527
:10044000E1F7862F8E2B922F9270892B922F91702D
:10045000892B852B842B832B8DB9822F90E0969549
:1004600087959695879581708EB908958FB9779BFA
:0A047000FECF8FB10895F894FFCF7E
:10047A0048656C6C6F2066726F6D2055415254004E
:0E048A002E2E2E203A290A004E554C4C000012
:00000001FF
